{
  "contractName": "GameMarketplace",
  "abi": [
    {
      "anonymous": false,
      "inputs": [
        {
          "indexed": false,
          "internalType": "uint256",
          "name": "gameId",
          "type": "uint256"
        },
        {
          "indexed": false,
          "internalType": "string",
          "name": "title",
          "type": "string"
        },
        {
          "indexed": false,
          "internalType": "address",
          "name": "developer",
          "type": "address"
        }
      ],
      "name": "GameAdded",
      "type": "event"
    },
    {
      "anonymous": false,
      "inputs": [
        {
          "indexed": false,
          "internalType": "uint256",
          "name": "gameId",
          "type": "uint256"
        },
        {
          "indexed": false,
          "internalType": "address",
          "name": "buyer",
          "type": "address"
        },
        {
          "indexed": false,
          "internalType": "uint256",
          "name": "price",
          "type": "uint256"
        }
      ],
      "name": "GamePurchased",
      "type": "event"
    },
    {
      "inputs": [],
      "name": "gameCount",
      "outputs": [
        {
          "internalType": "uint256",
          "name": "",
          "type": "uint256"
        }
      ],
      "stateMutability": "view",
      "type": "function",
      "constant": true
    },
    {
      "inputs": [
        {
          "internalType": "uint256",
          "name": "",
          "type": "uint256"
        }
      ],
      "name": "games",
      "outputs": [
        {
          "internalType": "uint256",
          "name": "id",
          "type": "uint256"
        },
        {
          "internalType": "string",
          "name": "title",
          "type": "string"
        },
        {
          "internalType": "uint256",
          "name": "price",
          "type": "uint256"
        },
        {
          "internalType": "string",
          "name": "description",
          "type": "string"
        },
        {
          "internalType": "string",
          "name": "image",
          "type": "string"
        },
        {
          "internalType": "bool",
          "name": "exists",
          "type": "bool"
        },
        {
          "internalType": "address",
          "name": "developer",
          "type": "address"
        }
      ],
      "stateMutability": "view",
      "type": "function",
      "constant": true
    },
    {
      "inputs": [
        {
          "internalType": "address",
          "name": "",
          "type": "address"
        },
        {
          "internalType": "uint256",
          "name": "",
          "type": "uint256"
        }
      ],
      "name": "userTransactions",
      "outputs": [
        {
          "internalType": "uint256",
          "name": "gameId",
          "type": "uint256"
        },
        {
          "internalType": "address",
          "name": "buyer",
          "type": "address"
        },
        {
          "internalType": "uint256",
          "name": "timestamp",
          "type": "uint256"
        }
      ],
      "stateMutability": "view",
      "type": "function",
      "constant": true
    },
    {
      "inputs": [
        {
          "internalType": "string",
          "name": "title",
          "type": "string"
        },
        {
          "internalType": "uint256",
          "name": "price",
          "type": "uint256"
        },
        {
          "internalType": "string",
          "name": "description",
          "type": "string"
        },
        {
          "internalType": "string",
          "name": "image",
          "type": "string"
        }
      ],
      "name": "addGame",
      "outputs": [],
      "stateMutability": "nonpayable",
      "type": "function"
    },
    {
      "inputs": [
        {
          "internalType": "uint256",
          "name": "gameId",
          "type": "uint256"
        }
      ],
      "name": "purchaseGame",
      "outputs": [],
      "stateMutability": "payable",
      "type": "function",
      "payable": true
    },
    {
      "inputs": [
        {
          "internalType": "address",
          "name": "user",
          "type": "address"
        }
      ],
      "name": "getUserTransactions",
      "outputs": [
        {
          "components": [
            {
              "internalType": "uint256",
              "name": "gameId",
              "type": "uint256"
            },
            {
              "internalType": "address",
              "name": "buyer",
              "type": "address"
            },
            {
              "internalType": "uint256",
              "name": "timestamp",
              "type": "uint256"
            }
          ],
          "internalType": "struct GameMarketplace.Transaction[]",
          "name": "",
          "type": "tuple[]"
        }
      ],
      "stateMutability": "view",
      "type": "function",
      "constant": true
    },
    {
      "inputs": [
        {
          "internalType": "uint256",
          "name": "gameId",
          "type": "uint256"
        }
      ],
      "name": "getGameById",
      "outputs": [
        {
          "components": [
            {
              "internalType": "uint256",
              "name": "id",
              "type": "uint256"
            },
            {
              "internalType": "string",
              "name": "title",
              "type": "string"
            },
            {
              "internalType": "uint256",
              "name": "price",
              "type": "uint256"
            },
            {
              "internalType": "string",
              "name": "description",
              "type": "string"
            },
            {
              "internalType": "string",
              "name": "image",
              "type": "string"
            },
            {
              "internalType": "bool",
              "name": "exists",
              "type": "bool"
            },
            {
              "internalType": "address",
              "name": "developer",
              "type": "address"
            }
          ],
          "internalType": "struct GameMarketplace.Game",
          "name": "",
          "type": "tuple"
        }
      ],
      "stateMutability": "view",
      "type": "function",
      "constant": true
    },
    {
      "inputs": [],
      "name": "getAllGames",
      "outputs": [
        {
          "components": [
            {
              "internalType": "uint256",
              "name": "id",
              "type": "uint256"
            },
            {
              "internalType": "string",
              "name": "title",
              "type": "string"
            },
            {
              "internalType": "uint256",
              "name": "price",
              "type": "uint256"
            },
            {
              "internalType": "string",
              "name": "description",
              "type": "string"
            },
            {
              "internalType": "string",
              "name": "image",
              "type": "string"
            },
            {
              "internalType": "bool",
              "name": "exists",
              "type": "bool"
            },
            {
              "internalType": "address",
              "name": "developer",
              "type": "address"
            }
          ],
          "internalType": "struct GameMarketplace.Game[]",
          "name": "",
          "type": "tuple[]"
        }
      ],
      "stateMutability": "view",
      "type": "function",
      "constant": true
    }
  ],
  "bytecode": "0x608060405234801561001057600080fd5b50611b29806100206000396000f3fe60806040526004361061007b5760003560e01c80637356e4e31161004e5780637356e4e314610154578063b842ec4414610170578063db1c45f9146101af578063ef925399146101da5761007b565b806309660513146100805780630d6e77ae146100bd578063117a5b90146100e65780634d1975b414610129575b600080fd5b34801561008c57600080fd5b506100a760048036038101906100a2919061122a565b610217565b6040516100b491906116b8565b60405180910390f35b3480156100c957600080fd5b506100e460048036038101906100df919061117f565b6104e0565b005b3480156100f257600080fd5b5061010d6004803603810190610108919061122a565b610672565b604051610120979695949392919061176a565b60405180910390f35b34801561013557600080fd5b5061013e610879565b60405161014b91906116da565b60405180910390f35b61016e6004803603810190610169919061122a565b61087f565b005b34801561017c57600080fd5b5061019760048036038101906101929190611143565b610acc565b6040516101a6939291906116f5565b60405180910390f35b3480156101bb57600080fd5b506101c4610b33565b6040516101d19190611634565b60405180910390f35b3480156101e657600080fd5b5061020160048036038101906101fc919061111a565b610e88565b60405161020e9190611656565b60405180910390f35b61021f610f90565b60008083815260200190815260200160002060050160009054906101000a900460ff16610281576040517f08c379a000000000000000000000000000000000000000000000000000000000815260040161027890611698565b60405180910390fd5b6000808381526020019081526020016000206040518060e0016040529081600082015481526020016001820180546102b8906119ac565b80601f01602080910402602001604051908101604052809291908181526020018280546102e4906119ac565b80156103315780601f1061030657610100808354040283529160200191610331565b820191906000526020600020905b81548152906001019060200180831161031457829003601f168201915b5050505050815260200160028201548152602001600382018054610354906119ac565b80601f0160208091040260200160405190810160405280929190818152602001828054610380906119ac565b80156103cd5780601f106103a2576101008083540402835291602001916103cd565b820191906000526020600020905b8154815290600101906020018083116103b057829003601f168201915b505050505081526020016004820180546103e6906119ac565b80601f0160208091040260200160405190810160405280929190818152602001828054610412906119ac565b801561045f5780601f106104345761010080835404028352916020019161045f565b820191906000526020600020905b81548152906001019060200180831161044257829003601f168201915b505050505081526020016005820160009054906101000a900460ff161515151581526020016005820160019054906101000a900473ffffffffffffffffffffffffffffffffffffffff1673ffffffffffffffffffffffffffffffffffffffff1673ffffffffffffffffffffffffffffffffffffffff16815250509050919050565b600260008154809291906104f3906119de565b91905055506040518060e0016040528060025481526020018581526020018481526020018381526020018281526020016001151581526020013373ffffffffffffffffffffffffffffffffffffffff168152506000806002548152602001908152602001600020600082015181600001556020820151816001019080519060200190610580929190610fe5565b506040820151816002015560608201518160030190805190602001906105a7929190610fe5565b5060808201518160040190805190602001906105c4929190610fe5565b5060a08201518160050160006101000a81548160ff02191690831515021790555060c08201518160050160016101000a81548173ffffffffffffffffffffffffffffffffffffffff021916908373ffffffffffffffffffffffffffffffffffffffff1602179055509050507fe12252c720141c139b212858d13d0bce8eb38e3bf17b447ba669adb4cbdb6ee260025485336040516106649392919061172c565b60405180910390a150505050565b600060205280600052604060002060009150905080600001549080600101805461069b906119ac565b80601f01602080910402602001604051908101604052809291908181526020018280546106c7906119ac565b80156107145780601f106106e957610100808354040283529160200191610714565b820191906000526020600020905b8154815290600101906020018083116106f757829003601f168201915b50505050509080600201549080600301805461072f906119ac565b80601f016020809104026020016040519081016040528092919081815260200182805461075b906119ac565b80156107a85780601f1061077d576101008083540402835291602001916107a8565b820191906000526020600020905b81548152906001019060200180831161078b57829003601f168201915b5050505050908060040180546107bd906119ac565b80601f01602080910402602001604051908101604052809291908181526020018280546107e9906119ac565b80156108365780601f1061080b57610100808354040283529160200191610836565b820191906000526020600020905b81548152906001019060200180831161081957829003601f168201915b5050505050908060050160009054906101000a900460ff16908060050160019054906101000a900473ffffffffffffffffffffffffffffffffffffffff16905087565b60025481565b600080600083815260200190815260200160002090508060050160009054906101000a900460ff166108e6576040517f08c379a00000000000000000000000000000000000000000000000000000000081526004016108dd90611698565b60405180910390fd5b8060020154341461092c576040517f08c379a000000000000000000000000000000000000000000000000000000000815260040161092390611678565b60405180910390fd5b8060050160019054906101000a900473ffffffffffffffffffffffffffffffffffffffff1673ffffffffffffffffffffffffffffffffffffffff166108fc349081150290604051600060405180830381858888f19350505050158015610996573d6000803e3d6000fd5b50600160003373ffffffffffffffffffffffffffffffffffffffff1673ffffffffffffffffffffffffffffffffffffffff16815260200190815260200160002060405180606001604052808481526020013373ffffffffffffffffffffffffffffffffffffffff1681526020014281525090806001815401808255809150506001900390600052602060002090600302016000909190919091506000820151816000015560208201518160010160006101000a81548173ffffffffffffffffffffffffffffffffffffffff021916908373ffffffffffffffffffffffffffffffffffffffff1602179055506040820151816002015550507f386b2c241ea9384ab9e1c5d3e12dfbd5c74f7a37ff7c5134cc04ef689f441949823334604051610ac0939291906116f5565b60405180910390a15050565b60016020528160005260406000208181548110610ae857600080fd5b9060005260206000209060030201600091509150508060000154908060010160009054906101000a900473ffffffffffffffffffffffffffffffffffffffff16908060020154905083565b6060600060025467ffffffffffffffff811115610b79577f4e487b7100000000000000000000000000000000000000000000000000000000600052604160045260246000fd5b604051908082528060200260200182016040528015610bb257816020015b610b9f610f90565b815260200190600190039081610b975790505b5090506000600190505b6002548111610e80576000808281526020019081526020016000206040518060e001604052908160008201548152602001600182018054610bfc906119ac565b80601f0160208091040260200160405190810160405280929190818152602001828054610c28906119ac565b8015610c755780601f10610c4a57610100808354040283529160200191610c75565b820191906000526020600020905b815481529060010190602001808311610c5857829003601f168201915b5050505050815260200160028201548152602001600382018054610c98906119ac565b80601f0160208091040260200160405190810160405280929190818152602001828054610cc4906119ac565b8015610d115780601f10610ce657610100808354040283529160200191610d11565b820191906000526020600020905b815481529060010190602001808311610cf457829003601f168201915b50505050508152602001600482018054610d2a906119ac565b80601f0160208091040260200160405190810160405280929190818152602001828054610d56906119ac565b8015610da35780601f10610d7857610100808354040283529160200191610da3565b820191906000526020600020905b815481529060010190602001808311610d8657829003601f168201915b505050505081526020016005820160009054906101000a900460ff161515151581526020016005820160019054906101000a900473ffffffffffffffffffffffffffffffffffffffff1673ffffffffffffffffffffffffffffffffffffffff1673ffffffffffffffffffffffffffffffffffffffff168152505082600183610e2b91906118ee565b81518110610e62577f4e487b7100000000000000000000000000000000000000000000000000000000600052603260045260246000fd5b60200260200101819052508080610e78906119de565b915050610bbc565b508091505090565b6060600160008373ffffffffffffffffffffffffffffffffffffffff1673ffffffffffffffffffffffffffffffffffffffff168152602001908152602001600020805480602002602001604051908101604052809291908181526020016000905b82821015610f855783829060005260206000209060030201604051806060016040529081600082015481526020016001820160009054906101000a900473ffffffffffffffffffffffffffffffffffffffff1673ffffffffffffffffffffffffffffffffffffffff1673ffffffffffffffffffffffffffffffffffffffff16815260200160028201548152505081526020019060010190610ee9565b505050509050919050565b6040518060e001604052806000815260200160608152602001600081526020016060815260200160608152602001600015158152602001600073ffffffffffffffffffffffffffffffffffffffff1681525090565b828054610ff1906119ac565b90600052602060002090601f016020900481019282611013576000855561105a565b82601f1061102c57805160ff191683800117855561105a565b8280016001018555821561105a579182015b8281111561105957825182559160200191906001019061103e565b5b509050611067919061106b565b5090565b5b8082111561108457600081600090555060010161106c565b5090565b600061109b6110968461181f565b6117ee565b9050828152602081018484840111156110b357600080fd5b6110be84828561196a565b509392505050565b6000813590506110d581611ac5565b92915050565b600082601f8301126110ec57600080fd5b81356110fc848260208601611088565b91505092915050565b60008135905061111481611adc565b92915050565b60006020828403121561112c57600080fd5b600061113a848285016110c6565b91505092915050565b6000806040838503121561115657600080fd5b6000611164858286016110c6565b925050602061117585828601611105565b9150509250929050565b6000806000806080858703121561119557600080fd5b600085013567ffffffffffffffff8111156111af57600080fd5b6111bb878288016110db565b94505060206111cc87828801611105565b935050604085013567ffffffffffffffff8111156111e957600080fd5b6111f5878288016110db565b925050606085013567ffffffffffffffff81111561121257600080fd5b61121e878288016110db565b91505092959194509250565b60006020828403121561123c57600080fd5b600061124a84828501611105565b91505092915050565b600061125f8383611480565b905092915050565b600061127383836115d4565b60608301905092915050565b61128881611922565b82525050565b61129781611922565b82525050565b60006112a88261186f565b6112b281856118aa565b9350836020820285016112c48561184f565b8060005b8581101561130057848403895281516112e18582611253565b94506112ec83611890565b925060208a019950506001810190506112c8565b50829750879550505050505092915050565b600061131d8261187a565b61132781856118bb565b93506113328361185f565b8060005b8381101561136357815161134a8882611267565b97506113558361189d565b925050600181019050611336565b5085935050505092915050565b61137981611934565b82525050565b61138881611934565b82525050565b600061139982611885565b6113a381856118cc565b93506113b3818560208601611979565b6113bc81611ab4565b840191505092915050565b60006113d282611885565b6113dc81856118dd565b93506113ec818560208601611979565b6113f581611ab4565b840191505092915050565b600061140d6014836118dd565b91507f496e636f72726563742070726963652073656e740000000000000000000000006000830152602082019050919050565b600061144d6013836118dd565b91507f47616d6520646f6573206e6f74206578697374000000000000000000000000006000830152602082019050919050565b600060e0830160008301516114986000860182611616565b50602083015184820360208601526114b0828261138e565b91505060408301516114c56040860182611616565b50606083015184820360608601526114dd828261138e565b915050608083015184820360808601526114f7828261138e565b91505060a083015161150c60a0860182611370565b5060c083015161151f60c086018261127f565b508091505092915050565b600060e0830160008301516115426000860182611616565b506020830151848203602086015261155a828261138e565b915050604083015161156f6040860182611616565b5060608301518482036060860152611587828261138e565b915050608083015184820360808601526115a1828261138e565b91505060a08301516115b660a0860182611370565b5060c08301516115c960c086018261127f565b508091505092915050565b6060820160008201516115ea6000850182611616565b5060208201516115fd602085018261127f565b5060408201516116106040850182611616565b50505050565b61161f81611960565b82525050565b61162e81611960565b82525050565b6000602082019050818103600083015261164e818461129d565b905092915050565b600060208201905081810360008301526116708184611312565b905092915050565b6000602082019050818103600083015261169181611400565b9050919050565b600060208201905081810360008301526116b181611440565b9050919050565b600060208201905081810360008301526116d2818461152a565b905092915050565b60006020820190506116ef6000830184611625565b92915050565b600060608201905061170a6000830186611625565b611717602083018561128e565b6117246040830184611625565b949350505050565b60006060820190506117416000830186611625565b818103602083015261175381856113c7565b9050611762604083018461128e565b949350505050565b600060e08201905061177f600083018a611625565b818103602083015261179181896113c7565b90506117a06040830188611625565b81810360608301526117b281876113c7565b905081810360808301526117c681866113c7565b90506117d560a083018561137f565b6117e260c083018461128e565b98975050505050505050565b6000604051905081810181811067ffffffffffffffff8211171561181557611814611a85565b5b8060405250919050565b600067ffffffffffffffff82111561183a57611839611a85565b5b601f19601f8301169050602081019050919050565b6000819050602082019050919050565b6000819050602082019050919050565b600081519050919050565b600081519050919050565b600081519050919050565b6000602082019050919050565b6000602082019050919050565b600082825260208201905092915050565b600082825260208201905092915050565b600082825260208201905092915050565b600082825260208201905092915050565b60006118f982611960565b915061190483611960565b92508282101561191757611916611a27565b5b828203905092915050565b600061192d82611940565b9050919050565b60008115159050919050565b600073ffffffffffffffffffffffffffffffffffffffff82169050919050565b6000819050919050565b82818337600083830152505050565b60005b8381101561199757808201518184015260208101905061197c565b838111156119a6576000848401525b50505050565b600060028204905060018216806119c457607f821691505b602082108114156119d8576119d7611a56565b5b50919050565b60006119e982611960565b91507fffffffffffffffffffffffffffffffffffffffffffffffffffffffffffffffff821415611a1c57611a1b611a27565b5b600182019050919050565b7f4e487b7100000000000000000000000000000000000000000000000000000000600052601160045260246000fd5b7f4e487b7100000000000000000000000000000000000000000000000000000000600052602260045260246000fd5b7f4e487b7100000000000000000000000000000000000000000000000000000000600052604160045260246000fd5b6000601f19601f8301169050919050565b611ace81611922565b8114611ad957600080fd5b50565b611ae581611960565b8114611af057600080fd5b5056fea2646970667358221220f34b06f5aa667b7b74cd8fe9e87d83dadb2fb9d04c7fb077b3d460fa8188abf364736f6c63430008000033",
  "immutableReferences": {},
  "source": "pragma solidity ^0.8.0;\n\ncontract GameMarketplace {\n    struct Game {\n        uint id;\n        string title;\n        uint price;\n        string description;\n        string image; // Add image URL\n        bool exists;  // To check if the game exists\n        address developer; // Tracks the developer of the game\n    }\n\n    struct Transaction {\n        uint gameId;\n        address buyer;\n        uint timestamp;\n    }\n\n    mapping(uint => Game) public games;\n    mapping(address => Transaction[]) public userTransactions;\n    uint public gameCount;\n\n    event GameAdded(uint gameId, string title, address developer);\n    event GamePurchased(uint gameId, address buyer, uint price);\n\n    // Add a new game to the marketplace\n    function addGame(\n        string memory title,\n        uint price,\n        string memory description,\n        string memory image\n    ) public {\n        gameCount++;\n        games[gameCount] = Game(gameCount, title, price, description, image, true, msg.sender);\n\n        emit GameAdded(gameCount, title, msg.sender);\n    }\n\n    function purchaseGame(uint gameId) public payable {\n        Game storage game = games[gameId];\n\n        require(game.exists, \"Game does not exist\");\n        require(msg.value == game.price, \"Incorrect price sent\");\n\n        payable(game.developer).transfer(msg.value);\n\n        userTransactions[msg.sender].push(\n            Transaction(gameId, msg.sender, block.timestamp)\n        );\n\n        emit GamePurchased(gameId, msg.sender, msg.value);\n    }\n\n    // Fetch user transactions\n    function getUserTransactions(address user)\n        public\n        view\n        returns (Transaction[] memory)\n    {\n        return userTransactions[user];\n    }\n\n    // Fetch game by ID\n    function getGameById(uint gameId)\n        public\n        view\n        returns (Game memory)\n    {\n        require(games[gameId].exists, \"Game does not exist\");\n        return games[gameId];\n    }\n\n    // Get all games in the marketplace\n    function getAllGames()\n        public\n        view\n        returns (Game[] memory)\n    {\n        Game[] memory allGames = new Game[](gameCount);\n        for (uint i = 1; i <= gameCount; i++) {\n            allGames[i - 1] = games[i];\n        }\n        return allGames;\n    }\n}\n\n",
  "sourcePath": "/home/osboxes/Desktop/dev/game-marketplace/contracts/GameMarketplace.sol",
  "compiler": {
    "name": "solc",
    "version": "0.8.0+commit.c7dfd78e.Emscripten.clang"
  },
  "schemaVersion": "3.4.16",
  "updatedAt": "2024-11-27T20:40:51.608Z",
  "networkType": "ethereum",
  "devdoc": {
    "kind": "dev",
    "methods": {},
    "version": 1
  },
  "userdoc": {
    "kind": "user",
    "methods": {},
    "version": 1
  }
}