{
  "contractName": "GameMarketplace",
  "abi": [
    {
      "anonymous": false,
      "inputs": [
        {
          "indexed": false,
          "internalType": "uint256",
          "name": "gameId",
          "type": "uint256"
        },
        {
          "indexed": false,
          "internalType": "address",
          "name": "buyer",
          "type": "address"
        }
      ],
      "name": "GamePurchased",
      "type": "event"
    },
    {
      "inputs": [],
      "name": "gameCount",
      "outputs": [
        {
          "internalType": "uint256",
          "name": "",
          "type": "uint256"
        }
      ],
      "stateMutability": "view",
      "type": "function",
      "constant": true
    },
    {
      "inputs": [
        {
          "internalType": "uint256",
          "name": "",
          "type": "uint256"
        }
      ],
      "name": "games",
      "outputs": [
        {
          "internalType": "uint256",
          "name": "id",
          "type": "uint256"
        },
        {
          "internalType": "string",
          "name": "title",
          "type": "string"
        },
        {
          "internalType": "uint256",
          "name": "price",
          "type": "uint256"
        },
        {
          "internalType": "bool",
          "name": "exists",
          "type": "bool"
        }
      ],
      "stateMutability": "view",
      "type": "function",
      "constant": true
    },
    {
      "inputs": [
        {
          "internalType": "string",
          "name": "title",
          "type": "string"
        },
        {
          "internalType": "uint256",
          "name": "price",
          "type": "uint256"
        }
      ],
      "name": "addGame",
      "outputs": [],
      "stateMutability": "nonpayable",
      "type": "function"
    },
    {
      "inputs": [
        {
          "internalType": "uint256",
          "name": "gameId",
          "type": "uint256"
        }
      ],
      "name": "purchaseGame",
      "outputs": [],
      "stateMutability": "payable",
      "type": "function",
      "payable": true
    },
    {
      "inputs": [
        {
          "internalType": "uint256",
          "name": "gameId",
          "type": "uint256"
        }
      ],
      "name": "getGame",
      "outputs": [
        {
          "internalType": "string",
          "name": "",
          "type": "string"
        },
        {
          "internalType": "uint256",
          "name": "",
          "type": "uint256"
        }
      ],
      "stateMutability": "view",
      "type": "function",
      "constant": true
    },
    {
      "inputs": [],
      "name": "owner",
      "outputs": [
        {
          "internalType": "address",
          "name": "",
          "type": "address"
        }
      ],
      "stateMutability": "view",
      "type": "function",
      "constant": true
    }
  ],
  "bytecode": "0x608060405234801561001057600080fd5b50610b84806100206000396000f3fe6080604052600436106100555760003560e01c8063117a5b901461005a5780634d1975b41461009a5780637356e4e3146100c55780638da5cb5b146100e1578063a2f77bcc1461010c578063b3aa2fe11461014a575b600080fd5b34801561006657600080fd5b50610081600480360381019061007c91906106ed565b610173565b60405161009194939291906108cb565b60405180910390f35b3480156100a657600080fd5b506100af610238565b6040516100bc9190610887565b60405180910390f35b6100df60048036038101906100da91906106ed565b61023e565b005b3480156100ed57600080fd5b506100f6610376565b60405161010391906107fc565b60405180910390f35b34801561011857600080fd5b50610133600480360381019061012e91906106ed565b610392565b604051610141929190610817565b60405180910390f35b34801561015657600080fd5b50610171600480360381019061016c9190610699565b6104cf565b005b600060205280600052604060002060009150905080600001549080600101805461019c90610a1e565b80601f01602080910402602001604051908101604052809291908181526020018280546101c890610a1e565b80156102155780601f106101ea57610100808354040283529160200191610215565b820191906000526020600020905b8154815290600101906020018083116101f857829003601f168201915b5050505050908060020154908060030160009054906101000a900460ff16905084565b60015481565b600080600083815260200190815260200160002090508060030160009054906101000a900460ff166102a5576040517f08c379a000000000000000000000000000000000000000000000000000000000815260040161029c90610867565b60405180910390fd5b806002015434146102eb576040517f08c379a00000000000000000000000000000000000000000000000000000000081526004016102e290610847565b60405180910390fd5b6102f3610376565b73ffffffffffffffffffffffffffffffffffffffff166108fc349081150290604051600060405180830381858888f19350505050158015610338573d6000803e3d6000fd5b507f4cbe1b6ee3cab53df4055dba2c8101319ab5aa9f932c68f4e67cb3e3b62b3e78823360405161036a9291906108a2565b60405180910390a15050565b6000738488fc4d4f8bb35605ce1ee0f5a1a6172f9106c0905090565b6060600080600080858152602001908152602001600020604051806080016040529081600082015481526020016001820180546103ce90610a1e565b80601f01602080910402602001604051908101604052809291908181526020018280546103fa90610a1e565b80156104475780601f1061041c57610100808354040283529160200191610447565b820191906000526020600020905b81548152906001019060200180831161042a57829003601f168201915b50505050508152602001600282015481526020016003820160009054906101000a900460ff161515151581525050905080606001516104bb576040517f08c379a00000000000000000000000000000000000000000000000000000000081526004016104b290610867565b60405180910390fd5b806020015181604001519250925050915091565b600160008154809291906104e290610a50565b919050555060405180608001604052806001548152602001838152602001828152602001600115158152506000806001548152602001908152602001600020600082015181600001556020820151816001019080519060200190610547929190610579565b506040820151816002015560608201518160030160006101000a81548160ff0219169083151502179055509050505050565b82805461058590610a1e565b90600052602060002090601f0160209004810192826105a757600085556105ee565b82601f106105c057805160ff19168380011785556105ee565b828001600101855582156105ee579182015b828111156105ed5782518255916020019190600101906105d2565b5b5090506105fb91906105ff565b5090565b5b80821115610618576000816000905550600101610600565b5090565b600061062f61062a84610948565b610917565b90508281526020810184848401111561064757600080fd5b6106528482856109dc565b509392505050565b600082601f83011261066b57600080fd5b813561067b84826020860161061c565b91505092915050565b60008135905061069381610b37565b92915050565b600080604083850312156106ac57600080fd5b600083013567ffffffffffffffff8111156106c657600080fd5b6106d28582860161065a565b92505060206106e385828601610684565b9150509250929050565b6000602082840312156106ff57600080fd5b600061070d84828501610684565b91505092915050565b61071f81610994565b82525050565b61072e816109a6565b82525050565b600061073f82610978565b6107498185610983565b93506107598185602086016109eb565b61076281610b26565b840191505092915050565b600061077a601483610983565b91507f496e636f72726563742070726963652073656e740000000000000000000000006000830152602082019050919050565b60006107ba601383610983565b91507f47616d6520646f6573206e6f74206578697374000000000000000000000000006000830152602082019050919050565b6107f6816109d2565b82525050565b60006020820190506108116000830184610716565b92915050565b600060408201905081810360008301526108318185610734565b905061084060208301846107ed565b9392505050565b600060208201905081810360008301526108608161076d565b9050919050565b60006020820190508181036000830152610880816107ad565b9050919050565b600060208201905061089c60008301846107ed565b92915050565b60006040820190506108b760008301856107ed565b6108c46020830184610716565b9392505050565b60006080820190506108e060008301876107ed565b81810360208301526108f28186610734565b905061090160408301856107ed565b61090e6060830184610725565b95945050505050565b6000604051905081810181811067ffffffffffffffff8211171561093e5761093d610af7565b5b8060405250919050565b600067ffffffffffffffff82111561096357610962610af7565b5b601f19601f8301169050602081019050919050565b600081519050919050565b600082825260208201905092915050565b600061099f826109b2565b9050919050565b60008115159050919050565b600073ffffffffffffffffffffffffffffffffffffffff82169050919050565b6000819050919050565b82818337600083830152505050565b60005b83811015610a095780820151818401526020810190506109ee565b83811115610a18576000848401525b50505050565b60006002820490506001821680610a3657607f821691505b60208210811415610a4a57610a49610ac8565b5b50919050565b6000610a5b826109d2565b91507fffffffffffffffffffffffffffffffffffffffffffffffffffffffffffffffff821415610a8e57610a8d610a99565b5b600182019050919050565b7f4e487b7100000000000000000000000000000000000000000000000000000000600052601160045260246000fd5b7f4e487b7100000000000000000000000000000000000000000000000000000000600052602260045260246000fd5b7f4e487b7100000000000000000000000000000000000000000000000000000000600052604160045260246000fd5b6000601f19601f8301169050919050565b610b40816109d2565b8114610b4b57600080fd5b5056fea2646970667358221220287fbe6067b67bc3a7bfff354aa498cb400030960a7e50fec7f65bb98430811d64736f6c63430008000033",
  "immutableReferences": {},
  "source": "// SPDX-License-Identifier: MIT\npragma solidity ^0.8.0;\n\ncontract GameMarketplace {\n    struct Game {\n        uint id;\n        string title;\n        uint price;\n        bool exists; // To check if the game exists\n    }\n\n    mapping(uint => Game) public games;\n    uint public gameCount;\n\n    event GamePurchased(uint gameId, address buyer);\n\n    // Add a new game to the marketplace\n    function addGame(string memory title, uint price) public {\n        gameCount++;\n        games[gameCount] = Game(gameCount, title, price, true);\n    }\n\n    // Purchase a game from the marketplace\n    function purchaseGame(uint gameId) public payable {\n        Game storage game = games[gameId];\n\n        // Check if the game exists\n        require(game.exists, \"Game does not exist\");\n        \n        // Check if the correct amount of Ether is sent\n        require(msg.value == game.price, \"Incorrect price sent\");\n\n        // Transfer the Ether to the contract's owner (or another address)\n        payable(owner()).transfer(msg.value);  // Ensure you have an owner() function or replace with a specific address\n\n        // Emit the event to notify the purchase\n        emit GamePurchased(gameId, msg.sender);\n    }\n\n    // Get the details of a specific game by its ID\n    function getGame(uint gameId) public view returns (string memory, uint) {\n        Game memory game = games[gameId];\n        \n        // Ensure the game exists\n        require(game.exists, \"Game does not exist\");\n        \n        return (game.title, game.price);\n    }\n\n    // Function to get the contract owner's address\n    function owner() public view returns (address) {\n        // This could be the deployer's address or any specific address that you want to receive the funds\n        return address(0x8488Fc4d4f8bB35605ce1Ee0f5A1A6172F9106c0); // Replace with actual address\n    }\n}\n",
  "sourcePath": "/home/osboxes/Desktop/dev/game-marketplace/contracts/GameMarketplace.sol",
  "compiler": {
    "name": "solc",
    "version": "0.8.0+commit.c7dfd78e.Emscripten.clang"
  },
  "schemaVersion": "3.4.16",
  "updatedAt": "2024-11-27T05:48:30.985Z",
  "networkType": "ethereum",
  "devdoc": {
    "kind": "dev",
    "methods": {},
    "version": 1
  },
  "userdoc": {
    "kind": "user",
    "methods": {},
    "version": 1
  }
}