{
  "contractName": "GameMarketplace",
  "abi": [
    {
      "anonymous": false,
      "inputs": [
        {
          "indexed": false,
          "internalType": "uint256",
          "name": "gameId",
          "type": "uint256"
        },
        {
          "indexed": false,
          "internalType": "string",
          "name": "title",
          "type": "string"
        },
        {
          "indexed": false,
          "internalType": "address",
          "name": "developer",
          "type": "address"
        }
      ],
      "name": "GameAdded",
      "type": "event"
    },
    {
      "anonymous": false,
      "inputs": [
        {
          "indexed": false,
          "internalType": "uint256",
          "name": "gameId",
          "type": "uint256"
        },
        {
          "indexed": false,
          "internalType": "address",
          "name": "buyer",
          "type": "address"
        }
      ],
      "name": "GamePurchased",
      "type": "event"
    },
    {
      "inputs": [],
      "name": "gameCount",
      "outputs": [
        {
          "internalType": "uint256",
          "name": "",
          "type": "uint256"
        }
      ],
      "stateMutability": "view",
      "type": "function",
      "constant": true
    },
    {
      "inputs": [
        {
          "internalType": "uint256",
          "name": "",
          "type": "uint256"
        }
      ],
      "name": "games",
      "outputs": [
        {
          "internalType": "uint256",
          "name": "id",
          "type": "uint256"
        },
        {
          "internalType": "string",
          "name": "title",
          "type": "string"
        },
        {
          "internalType": "uint256",
          "name": "price",
          "type": "uint256"
        },
        {
          "internalType": "string",
          "name": "description",
          "type": "string"
        },
        {
          "internalType": "string",
          "name": "image",
          "type": "string"
        },
        {
          "internalType": "bool",
          "name": "exists",
          "type": "bool"
        },
        {
          "internalType": "address",
          "name": "owner",
          "type": "address"
        }
      ],
      "stateMutability": "view",
      "type": "function",
      "constant": true
    },
    {
      "inputs": [
        {
          "internalType": "string",
          "name": "title",
          "type": "string"
        },
        {
          "internalType": "uint256",
          "name": "price",
          "type": "uint256"
        },
        {
          "internalType": "string",
          "name": "description",
          "type": "string"
        },
        {
          "internalType": "string",
          "name": "image",
          "type": "string"
        }
      ],
      "name": "addGame",
      "outputs": [],
      "stateMutability": "nonpayable",
      "type": "function"
    },
    {
      "inputs": [
        {
          "internalType": "uint256",
          "name": "gameId",
          "type": "uint256"
        }
      ],
      "name": "purchaseGame",
      "outputs": [],
      "stateMutability": "payable",
      "type": "function",
      "payable": true
    },
    {
      "inputs": [
        {
          "internalType": "uint256",
          "name": "gameId",
          "type": "uint256"
        }
      ],
      "name": "getGame",
      "outputs": [
        {
          "internalType": "string",
          "name": "title",
          "type": "string"
        },
        {
          "internalType": "uint256",
          "name": "price",
          "type": "uint256"
        },
        {
          "internalType": "string",
          "name": "description",
          "type": "string"
        },
        {
          "internalType": "string",
          "name": "image",
          "type": "string"
        },
        {
          "internalType": "address",
          "name": "owner",
          "type": "address"
        }
      ],
      "stateMutability": "view",
      "type": "function",
      "constant": true
    },
    {
      "inputs": [],
      "name": "getAllGames",
      "outputs": [
        {
          "components": [
            {
              "internalType": "uint256",
              "name": "id",
              "type": "uint256"
            },
            {
              "internalType": "string",
              "name": "title",
              "type": "string"
            },
            {
              "internalType": "uint256",
              "name": "price",
              "type": "uint256"
            },
            {
              "internalType": "string",
              "name": "description",
              "type": "string"
            },
            {
              "internalType": "string",
              "name": "image",
              "type": "string"
            },
            {
              "internalType": "bool",
              "name": "exists",
              "type": "bool"
            },
            {
              "internalType": "address",
              "name": "owner",
              "type": "address"
            }
          ],
          "internalType": "struct GameMarketplace.Game[]",
          "name": "",
          "type": "tuple[]"
        }
      ],
      "stateMutability": "view",
      "type": "function",
      "constant": true
    },
    {
      "inputs": [],
      "name": "contractOwner",
      "outputs": [
        {
          "internalType": "address",
          "name": "",
          "type": "address"
        }
      ],
      "stateMutability": "pure",
      "type": "function",
      "constant": true
    }
  ],
  "bytecode": "0x608060405234801561001057600080fd5b506116da806100206000396000f3fe6080604052600436106100705760003560e01c80637356e4e31161004e5780637356e4e31461010c578063a2f77bcc14610128578063ce606ee014610169578063db1c45f91461019457610070565b80630d6e77ae14610075578063117a5b901461009e5780634d1975b4146100e1575b600080fd5b34801561008157600080fd5b5061009c60048036038101906100979190610eb1565b6101bf565b005b3480156100aa57600080fd5b506100c560048036038101906100c09190610f5c565b610351565b6040516100d8979695949392919061136b565b60405180910390f35b3480156100ed57600080fd5b506100f6610558565b60405161010391906112e9565b60405180910390f35b61012660048036038101906101219190610f5c565b61055e565b005b34801561013457600080fd5b5061014f600480360381019061014a9190610f5c565b6106f6565b604051610160959493929190611241565b60405180910390f35b34801561017557600080fd5b5061017e6109cb565b60405161018b9190611204565b60405180910390f35b3480156101a057600080fd5b506101a96109e7565b6040516101b6919061121f565b60405180910390f35b600160008154809291906101d2906115a6565b91905055506040518060e0016040528060015481526020018581526020018481526020018381526020018281526020016001151581526020013373ffffffffffffffffffffffffffffffffffffffff16815250600080600154815260200190815260200160002060008201518160000155602082015181600101908051906020019061025f929190610d3c565b50604082015181600201556060820151816003019080519060200190610286929190610d3c565b5060808201518160040190805190602001906102a3929190610d3c565b5060a08201518160050160006101000a81548160ff02191690831515021790555060c08201518160050160016101000a81548173ffffffffffffffffffffffffffffffffffffffff021916908373ffffffffffffffffffffffffffffffffffffffff1602179055509050507fe12252c720141c139b212858d13d0bce8eb38e3bf17b447ba669adb4cbdb6ee260015485336040516103439392919061132d565b60405180910390a150505050565b600060205280600052604060002060009150905080600001549080600101805461037a90611574565b80601f01602080910402602001604051908101604052809291908181526020018280546103a690611574565b80156103f35780601f106103c8576101008083540402835291602001916103f3565b820191906000526020600020905b8154815290600101906020018083116103d657829003601f168201915b50505050509080600201549080600301805461040e90611574565b80601f016020809104026020016040519081016040528092919081815260200182805461043a90611574565b80156104875780601f1061045c57610100808354040283529160200191610487565b820191906000526020600020905b81548152906001019060200180831161046a57829003601f168201915b50505050509080600401805461049c90611574565b80601f01602080910402602001604051908101604052809291908181526020018280546104c890611574565b80156105155780601f106104ea57610100808354040283529160200191610515565b820191906000526020600020905b8154815290600101906020018083116104f857829003601f168201915b5050505050908060050160009054906101000a900460ff16908060050160019054906101000a900473ffffffffffffffffffffffffffffffffffffffff16905087565b60015481565b600080600083815260200190815260200160002090508060050160009054906101000a900460ff166105c5576040517f08c379a00000000000000000000000000000000000000000000000000000000081526004016105bc906112c9565b60405180910390fd5b8060020154341461060b576040517f08c379a0000000000000000000000000000000000000000000000000000000008152600401610602906112a9565b60405180910390fd5b8060050160019054906101000a900473ffffffffffffffffffffffffffffffffffffffff1673ffffffffffffffffffffffffffffffffffffffff166108fc349081150290604051600060405180830381858888f19350505050158015610675573d6000803e3d6000fd5b50338160050160016101000a81548173ffffffffffffffffffffffffffffffffffffffff021916908373ffffffffffffffffffffffffffffffffffffffff1602179055507f4cbe1b6ee3cab53df4055dba2c8101319ab5aa9f932c68f4e67cb3e3b62b3e7882336040516106ea929190611304565b60405180910390a15050565b606060006060806000806000808881526020019081526020016000206040518060e00160405290816000820154815260200160018201805461073790611574565b80601f016020809104026020016040519081016040528092919081815260200182805461076390611574565b80156107b05780601f10610785576101008083540402835291602001916107b0565b820191906000526020600020905b81548152906001019060200180831161079357829003601f168201915b50505050508152602001600282015481526020016003820180546107d390611574565b80601f01602080910402602001604051908101604052809291908181526020018280546107ff90611574565b801561084c5780601f106108215761010080835404028352916020019161084c565b820191906000526020600020905b81548152906001019060200180831161082f57829003601f168201915b5050505050815260200160048201805461086590611574565b80601f016020809104026020016040519081016040528092919081815260200182805461089190611574565b80156108de5780601f106108b3576101008083540402835291602001916108de565b820191906000526020600020905b8154815290600101906020018083116108c157829003601f168201915b505050505081526020016005820160009054906101000a900460ff161515151581526020016005820160019054906101000a900473ffffffffffffffffffffffffffffffffffffffff1673ffffffffffffffffffffffffffffffffffffffff1673ffffffffffffffffffffffffffffffffffffffff168152505090508060a0015161099e576040517f08c379a0000000000000000000000000000000000000000000000000000000008152600401610995906112c9565b60405180910390fd5b80602001518160400151826060015183608001518460c00151955095509550955095505091939590929450565b6000733bdef492279a93496bc8d27ef9c49c2be56ca2b0905090565b6060600060015467ffffffffffffffff811115610a2d577f4e487b7100000000000000000000000000000000000000000000000000000000600052604160045260246000fd5b604051908082528060200260200182016040528015610a6657816020015b610a53610dc2565b815260200190600190039081610a4b5790505b5090506000600190505b6001548111610d34576000808281526020019081526020016000206040518060e001604052908160008201548152602001600182018054610ab090611574565b80601f0160208091040260200160405190810160405280929190818152602001828054610adc90611574565b8015610b295780601f10610afe57610100808354040283529160200191610b29565b820191906000526020600020905b815481529060010190602001808311610b0c57829003601f168201915b5050505050815260200160028201548152602001600382018054610b4c90611574565b80601f0160208091040260200160405190810160405280929190818152602001828054610b7890611574565b8015610bc55780601f10610b9a57610100808354040283529160200191610bc5565b820191906000526020600020905b815481529060010190602001808311610ba857829003601f168201915b50505050508152602001600482018054610bde90611574565b80601f0160208091040260200160405190810160405280929190818152602001828054610c0a90611574565b8015610c575780601f10610c2c57610100808354040283529160200191610c57565b820191906000526020600020905b815481529060010190602001808311610c3a57829003601f168201915b505050505081526020016005820160009054906101000a900460ff161515151581526020016005820160019054906101000a900473ffffffffffffffffffffffffffffffffffffffff1673ffffffffffffffffffffffffffffffffffffffff1673ffffffffffffffffffffffffffffffffffffffff168152505082600183610cdf91906114b6565b81518110610d16577f4e487b7100000000000000000000000000000000000000000000000000000000600052603260045260246000fd5b60200260200101819052508080610d2c906115a6565b915050610a70565b508091505090565b828054610d4890611574565b90600052602060002090601f016020900481019282610d6a5760008555610db1565b82601f10610d8357805160ff1916838001178555610db1565b82800160010185558215610db1579182015b82811115610db0578251825591602001919060010190610d95565b5b509050610dbe9190610e17565b5090565b6040518060e001604052806000815260200160608152602001600081526020016060815260200160608152602001600015158152602001600073ffffffffffffffffffffffffffffffffffffffff1681525090565b5b80821115610e30576000816000905550600101610e18565b5090565b6000610e47610e4284611420565b6113ef565b905082815260208101848484011115610e5f57600080fd5b610e6a848285611532565b509392505050565b600082601f830112610e8357600080fd5b8135610e93848260208601610e34565b91505092915050565b600081359050610eab8161168d565b92915050565b60008060008060808587031215610ec757600080fd5b600085013567ffffffffffffffff811115610ee157600080fd5b610eed87828801610e72565b9450506020610efe87828801610e9c565b935050604085013567ffffffffffffffff811115610f1b57600080fd5b610f2787828801610e72565b925050606085013567ffffffffffffffff811115610f4457600080fd5b610f5087828801610e72565b91505092959194509250565b600060208284031215610f6e57600080fd5b6000610f7c84828501610e9c565b91505092915050565b6000610f91838361113c565b905092915050565b610fa2816114ea565b82525050565b610fb1816114ea565b82525050565b6000610fc282611460565b610fcc8185611483565b935083602082028501610fde85611450565b8060005b8581101561101a5784840389528151610ffb8582610f85565b945061100683611476565b925060208a01995050600181019050610fe2565b50829750879550505050505092915050565b611035816114fc565b82525050565b611044816114fc565b82525050565b60006110558261146b565b61105f8185611494565b935061106f818560208601611541565b6110788161167c565b840191505092915050565b600061108e8261146b565b61109881856114a5565b93506110a8818560208601611541565b6110b18161167c565b840191505092915050565b60006110c96014836114a5565b91507f496e636f72726563742070726963652073656e740000000000000000000000006000830152602082019050919050565b60006111096013836114a5565b91507f47616d6520646f6573206e6f74206578697374000000000000000000000000006000830152602082019050919050565b600060e08301600083015161115460008601826111e6565b506020830151848203602086015261116c828261104a565b915050604083015161118160408601826111e6565b5060608301518482036060860152611199828261104a565b915050608083015184820360808601526111b3828261104a565b91505060a08301516111c860a086018261102c565b5060c08301516111db60c0860182610f99565b508091505092915050565b6111ef81611528565b82525050565b6111fe81611528565b82525050565b60006020820190506112196000830184610fa8565b92915050565b600060208201905081810360008301526112398184610fb7565b905092915050565b600060a082019050818103600083015261125b8188611083565b905061126a60208301876111f5565b818103604083015261127c8186611083565b905081810360608301526112908185611083565b905061129f6080830184610fa8565b9695505050505050565b600060208201905081810360008301526112c2816110bc565b9050919050565b600060208201905081810360008301526112e2816110fc565b9050919050565b60006020820190506112fe60008301846111f5565b92915050565b600060408201905061131960008301856111f5565b6113266020830184610fa8565b9392505050565b600060608201905061134260008301866111f5565b81810360208301526113548185611083565b90506113636040830184610fa8565b949350505050565b600060e082019050611380600083018a6111f5565b81810360208301526113928189611083565b90506113a160408301886111f5565b81810360608301526113b38187611083565b905081810360808301526113c78186611083565b90506113d660a083018561103b565b6113e360c0830184610fa8565b98975050505050505050565b6000604051905081810181811067ffffffffffffffff821117156114165761141561164d565b5b8060405250919050565b600067ffffffffffffffff82111561143b5761143a61164d565b5b601f19601f8301169050602081019050919050565b6000819050602082019050919050565b600081519050919050565b600081519050919050565b6000602082019050919050565b600082825260208201905092915050565b600082825260208201905092915050565b600082825260208201905092915050565b60006114c182611528565b91506114cc83611528565b9250828210156114df576114de6115ef565b5b828203905092915050565b60006114f582611508565b9050919050565b60008115159050919050565b600073ffffffffffffffffffffffffffffffffffffffff82169050919050565b6000819050919050565b82818337600083830152505050565b60005b8381101561155f578082015181840152602081019050611544565b8381111561156e576000848401525b50505050565b6000600282049050600182168061158c57607f821691505b602082108114156115a05761159f61161e565b5b50919050565b60006115b182611528565b91507fffffffffffffffffffffffffffffffffffffffffffffffffffffffffffffffff8214156115e4576115e36115ef565b5b600182019050919050565b7f4e487b7100000000000000000000000000000000000000000000000000000000600052601160045260246000fd5b7f4e487b7100000000000000000000000000000000000000000000000000000000600052602260045260246000fd5b7f4e487b7100000000000000000000000000000000000000000000000000000000600052604160045260246000fd5b6000601f19601f8301169050919050565b61169681611528565b81146116a157600080fd5b5056fea264697066735822122090d6c78bcb8d46e01a3ad250d402318d2f4be3c1d497b6ce3d144c90e23fc3b464736f6c63430008000033",
  "immutableReferences": {},
  "source": "// SPDX-License-Identifier: MIT\npragma solidity ^0.8.0;\n\ncontract GameMarketplace {\n    struct Game {\n        uint id;\n        string title;\n        uint price;\n        string description; // Add description\n        string image;       // Add image URL\n        bool exists;        // To check if the game exists\n        address owner;      // Tracks the current owner of the game\n    }\n\n    mapping(uint => Game) public games;\n    uint public gameCount;\n\n    event GameAdded(uint gameId, string title, address developer);\n    event GamePurchased(uint gameId, address buyer);\n\n    // Add a new game to the marketplace\n    function addGame(\n        string memory title,\n        uint price,\n        string memory description,\n        string memory image\n    ) public {\n        gameCount++;\n        games[gameCount] = Game(gameCount, title, price, description, image, true, msg.sender);\n\n        emit GameAdded(gameCount, title, msg.sender);\n    }\n\n    // Purchase a game from the marketplace\n    function purchaseGame(uint gameId) public payable {\n        Game storage game = games[gameId];\n\n        // Check if the game exists\n        require(game.exists, \"Game does not exist\");\n\n        // Check if the correct amount of Ether is sent\n        require(msg.value == game.price, \"Incorrect price sent\");\n\n        // Transfer the Ether to the game's owner\n        payable(game.owner).transfer(msg.value);\n\n        // Update game ownership to the buyer\n        game.owner = msg.sender;\n\n        // Emit the event to notify the purchase\n        emit GamePurchased(gameId, msg.sender);\n    }\n\n    // Get the details of a specific game by its ID\n    function getGame(uint gameId)\n        public\n        view\n        returns (\n            string memory title,\n            uint price,\n            string memory description,\n            string memory image,\n            address owner\n        )\n    {\n        Game memory game = games[gameId];\n\n        // Ensure the game exists\n        require(game.exists, \"Game does not exist\");\n\n        return (game.title, game.price, game.description, game.image, game.owner);\n    }\n\n    // Get all games in the marketplace\n    function getAllGames()\n        public\n        view\n        returns (Game[] memory)\n    {\n        Game[] memory allGames = new Game[](gameCount);\n        for (uint i = 1; i <= gameCount; i++) {\n            allGames[i - 1] = games[i];\n        }\n        return allGames;\n    }\n\n    // Function to get the contract owner's address\n    function contractOwner() public pure returns (address) {\n        return address(0x3BdEF492279A93496bc8D27EF9C49C2bE56ca2b0); // Replace with actual address\n    }\n}\n\n",
  "sourcePath": "/home/osboxes/196part2/game-marketplace/contracts/GameMarketplace.sol",
  "compiler": {
    "name": "solc",
    "version": "0.8.0+commit.c7dfd78e.Emscripten.clang"
  },
  "schemaVersion": "3.4.16",
  "updatedAt": "2024-11-27T19:58:57.215Z",
  "networkType": "ethereum",
  "devdoc": {
    "kind": "dev",
    "methods": {},
    "version": 1
  },
  "userdoc": {
    "kind": "user",
    "methods": {},
    "version": 1
  }
}